:020000040800F2
:1000000000C00020E1160008D9100008E110000827
:10001000E9100008F1100008F910000800000000C5
:1000200000000000000000000000000001110008B6
:100030000D1100080000000019110008251100082A
:100040002917000829170008291700082917000890
:100050002917000829170008291700082917000880
:100060002917000829170008291700082917000870
:100070002917000829170008291700082917000860
:100080002917000829170008291700082917000850
:1000900031110008451100085911000829170008FE
:1000A0002917000829170008291700082917000830
:1000B0002917000829170008291700082917000820
:1000C0002917000829170008291700082917000810
:1000D0002917000829170008291700082917000800
:1000E00029170008291700082917000829170008F0
:1000F00029170008291700082917000829170008E0
:1001000029170008291700086D1100082917000891
:100110008111000895110008291700082917000807
:100120002917000829170008A9110008BD110008A7
:1001300000000000000000000000000000000000BF
:1001400000000000000000000000000000000000AF
:10015000000000000000000000000000000000009F
:10016000000000000000000000000000000000008F
:10017000000000000000000000000000000000007F
:10018000000000000000000000000000000000006F
:10019000000000000000000000000000000000005F
:1001A000000000000000000000000000000000004F
:1001B000000000000000000000000000000000003F
:1001C000000000000000000000000000000000002F
:1001D000000000000000000000000000000000001F
:0401E0005FF8E0F1F3
:1001E80010B5054C237833B9044B13B10448AFF369
:1001F80000800123237010BDD801002000000000FA
:10020800D0A3000808B5034B1BB103490348AFF35B
:10021800008008BD00000000DC010020D0A3000819
:10022800034613F8012B002AFBD1181A013870472E
:1002380081F0004102E000BF83F0004330B54FEA8F
:1002480041044FEA430594EA050F08BF90EA020FFC
:100258001FBF54EA000C55EA020C7FEA645C7FEA8F
:10026800655C00F0E2804FEA5454D4EB5555B8BFB2
:100278006D420CDD2C4480EA020281EA030382EA23
:10028800000083EA010180EA020281EA0303362DB5
:1002980088BF30BD11F0004F4FEA01314FF4801C88
:1002A8004CEA113102D0404261EB410113F0004F9A
:1002B8004FEA03334CEA133302D0524263EB430351
:1002C80094EA050F00F0A780A4F10104D5F1200EEF
:1002D8000DDB02FA0EFC22FA05F2801841F100014A
:1002E80003FA0EF2801843FA05F359410EE0A5F11E
:1002F80020050EF1200E012A03FA0EFC28BF4CF04F
:10030800020C43FA05F3C01851EBE37101F0004504
:1003180007D54FF0000EDCF1000C7EEB00006EEB11
:100328000101B1F5801F1BD3B1F5001F0CD349089B
:100338005FEA30004FEA3C0C04F101044FEA4452F2
:1003480012F5800F80F09A80BCF1004F08BF5FEA79
:10035800500C50F1000041EB045141EA050130BD59
:100368005FEA4C0C404141EB0101013C28BFB1F56B
:10037800801FE9D291F0000F04BF01460020B1FAB6
:1003880081F308BF2033A3F10B03B3F120020CDA89
:100398000C3208DD02F1140CC2F10C0201FA0CF067
:1003A80021FA02F10CE002F11402D8BFC2F1200CCC
:1003B80001FA02F120FA0CFCDCBF41EA0C01904082
:1003C800E41AA2BF01EB0451294330BD6FEA0404CB
:1003D8001F3C1CDA0C340EDC04F11404C4F12002B6
:1003E80020FA04F001FA02F340EA030021FA04F3C8
:1003F80045EA030130BDC4F10C04C4F1200220FA1F
:1004080002F001FA04F340EA0300294630BD21FA5C
:1004180004F0294630BD94F0000F83F4801306BF22
:1004280081F480110134013D4EE77FEA645C18BF16
:100438007FEA655C29D094EA050F08BF90EA020FAD
:1004480005D054EA000C04BF1946104630BD91EAA5
:10045800030F1EBF0021002030BD5FEA545C05D1A8
:100468004000494128BF41F0004130BD14F58004E7
:100478003CBF01F5801130BD01F0004545F0FE415B
:1004880041F470014FF0000030BD7FEA645C1ABF90
:10049800194610467FEA655C1CBF0B46024650EAC7
:1004A800013406BF52EA033591EA030F41F40021F3
:1004B80030BD00BF90F0000F04BF0021704730B579
:1004C8004FF4806404F132044FF000054FF000014E
:1004D80050E700BF90F0000F04BF0021704730B50F
:1004E8004FF4806404F1320410F0004548BF4042E4
:1004F8004FF000013EE700BF42004FEAE2014FEA39
:1005080031014FEA02701FBF12F07F4393F07F4F13
:1005180081F06051704732F07F4208BF704793F016
:100528007F4F04BF41F40021704730B54FF4607429
:1005380001F0004521F000411CE700BF50EA01022C
:1005480008BF704730B54FF000050AE050EA0102D5
:1005580008BF704730B511F0004502D5404261EB45
:1005680041014FF4806404F132045FEA915C3FF486
:10057800D8AE4FF003025FEADC0C18BF03325FEA23
:10058800DC0C18BF033202EBDC02C2F1200300FAD4
:1005980003FC20FA02F001FA03FE40EA0E0021FAF9
:1005A80002F11444BDE600BF70B54FF0FF0C4CF4E7
:1005B800E06C1CEA11541DBF1CEA135594EA0C0F99
:1005C80095EA0C0F00F0DEF82C4481EA030621EAD4
:1005D8004C5123EA4C5350EA013518BF52EA03350F
:1005E80041F4801143F4801338D0A0FB02CE4FF0C1
:1005F8000005E1FB02E506F00042E0FB03E54FF0F1
:100608000006E1FB03569CF0000F18BF4EF0010EE8
:10061800A4F1FF04B6F5007F64F5407404D25FEAE4
:100628004E0E6D4146EB060642EAC62141EA555197
:100638004FEAC52040EA5E504FEACE2EB4F1FD0CD9
:1006480088BFBCF5E06F1ED8BEF1004F08BF5FEA57
:10065800500E50F1000041EB045170BD06F0004609
:1006680046EA010140EA020081EA0301B4EB5C04B6
:10067800C2BFD4EB0C0541EA045170BD41F48011AE
:100688004FF0000E013C00F3AB8014F1360FDEBFD3
:10069800002001F0004170BDC4F10004203C35DAAF
:1006A8000C341BDC04F11404C4F1200500FA05F332
:1006B80020FA04F001FA05F240EA020001F00042D3
:1006C80021F0004110EBD37021FA04F642EB060149
:1006D8005EEA430E08BF20EAD37070BDC4F10C0473
:1006E800C4F1200500FA04F320FA05F001FA04F237
:1006F80040EA020001F0004110EBD37041F1000123
:100708005EEA430E08BF20EAD37070BDC4F120052D
:1007180000FA05F24EEA020E20FA04F301FA05F295
:1007280043EA020321FA04F001F0004121FA04F23D
:1007380020EA020000EBD3705EEA430E08BF20EA0D
:10074800D37070BD94F0000F0FD101F00046400047
:1007580041EB010111F4801F08BF013CF7D041EAC9
:10076800060195F0000F18BF704703F000465200CD
:1007780043EB030313F4801F08BF013DF7D043EA9E
:100788000603704794EA0C0F0CEA135518BF95EA54
:100798000C0F0CD050EA410618BF52EA4306D1D1DB
:1007A80081EA030101F000414FF0000070BD50EAFA
:1007B800410606BF1046194652EA430619D094EA84
:1007C8000C0F02D150EA013613D195EA0C0F05D16E
:1007D80052EA03361CBF104619460AD181EA0301C2
:1007E80001F0004141F0FE4141F470014FF000007A
:1007F80070BD41F0FE4141F4780170BD70B54FF015
:10080800FF0C4CF4E06C1CEA11541DBF1CEA135594
:1008180094EA0C0F95EA0C0F00F0A7F8A4EB050476
:1008280081EA030E52EA03354FEA013100F088806D
:100838004FEA03334FF0805545EA131343EA126336
:100848004FEA022245EA111545EA10654FEA0026EB
:100858000EF000419D4208BF964244F1FD0404F5A4
:10086800407402D25B084FEA3202B61A65EB030500
:100878005B084FEA32024FF480104FF4002CB6EBBD
:10088800020E75EB030E22BFB61A754640EA0C003D
:100898005B084FEA3202B6EB020E75EB030E22BF7D
:1008A800B61A754640EA5C005B084FEA3202B6EBBE
:1008B800020E75EB030E22BFB61A754640EA9C007D
:1008C8005B084FEA3202B6EB020E75EB030E22BF4D
:1008D800B61A754640EADC0055EA060E18D04FEA0B
:1008E800051545EA16754FEA06164FEAC30343EAAB
:1008F80052734FEAC2025FEA1C1CC0D111F4801F78
:100908000BD141EA00014FF000004FF0004CB6E770
:1009180011F4801F04BF01430020B4F1FD0C88BF0F
:10092800BCF5E06F3FF6AFAEB5EB030C04BFB6EB1A
:10093800020C5FEA500C50F1000041EB045170BD0D
:100948000EF0004E4EEA113114EB5C04C2BFD4EB3A
:100958000C0541EA045170BD41F480114FF0000EBE
:10096800013C90E645EA060E8DE60CEA135594EA3A
:100978000C0F08BF95EA0C0F3FF43BAF94EA0C0F3D
:100988000AD150EA01347FF434AF95EA0C0F7FF4B2
:1009980025AF104619462CE795EA0C0F06D152EA06
:1009A80003353FF4FDAE1046194622E750EA4106EA
:1009B80018BF52EA43067FF4C5AE50EA41047FF4FB
:1009C8000DAF52EA43057FF4EBAE12E74FF0FF3C60
:1009D80006E000BF4FF0010C02E000BF4FF0010C31
:1009E8004DF804CD4FEA410C7FEA6C5C4FEA430CAA
:1009F80018BF7FEA6C5C1BD001B050EA410C0CBFF9
:100A080052EA430C91EA030F02BF90EA020F00205A
:100A1800704710F1000F91EA030F58BF994208BFC1
:100A280090422CBFD8176FEAE37040F0010070477E
:100A38004FEA410C7FEA6C5C02D150EA013C07D1D5
:100A48004FEA430C7FEA6C5CD6D152EA033CD3D020
:100A58005DF8040B704700BF8446104662468C461A
:100A68001946634600E000BF01B5FFF7B7FF00284D
:100A780048BF10F1000F01BD4DF808EDFFF7F4FF76
:100A88000CBF012000205DF808FB00BF4DF808ED01
:100A9800FFF7EAFF34BF012000205DF808FB00BF24
:100AA8004DF808EDFFF7E0FF94BF012000205DF846
:100AB80008FB00BF4DF808EDFFF7CEFF94BF0120FB
:100AC80000205DF808FB00BF4DF808EDFFF7C4FFF4
:100AD80034BF012000205DF808FB00BF4FEA410C3D
:100AE8007FEA6C5C02D150EA013C0AD14FEA430C20
:100AF8007FEA6C5C02D152EA033C02D14FF000005D
:100B080070474FF0010070474FEA410212F500129A
:100B180015D211D56FF47873B3EB625212D94FEA3C
:100B2800C12343F0004343EA505311F0004F23FA26
:100B380002F018BF404270474FF00000704750EA7B
:100B4800013005D111F0004008BF6FF00040704738
:100B58004FF00000704700BF80F0004002E000BF87
:100B680081F0004142001FBF5FEA410392EA030F90
:100B78007FEA226C7FEA236C6AD04FEA1262D2EBDA
:100B88001363C1BFD218414048404140B8BF5B42DF
:100B9800192B88BF704710F0004F40F4000020F078
:100BA8007F4018BF404211F0004F41F4000121F08E
:100BB8007F4118BF494292EA030F3FD0A2F10102D8
:100BC80041FA03FC10EB0C00C3F1200301FA03F116
:100BD80000F0004302D5494260EB4000B0F5000F39
:100BE80013D3B0F1807F06D340084FEA310102F1F8
:100BF8000102FE2A51D2B1F1004F40EBC25008BFAA
:100C080020F0010040EA03007047490040EB000073
:100C1800013A28BFB0F5000FEDD2B0FA80FCACF174
:100C2800080CB2EB0C0200FA0CF0AABF00EBC250A1
:100C380052421843BCBFD0401843704792F0000F8F
:100C480081F4000106BF80F400000132013BB5E7E2
:100C58004FEA41037FEA226C18BF7FEA236C21D058
:100C680092EA030F04D092F0000F08BF08467047BD
:100C780090EA010F1CBF0020704712F07F4F04D18B
:100C8800400028BF40F00040704712F100723CBF9E
:100C980000F50000704700F0004343F0FE4040F4C8
:100CA800000070477FEA226216BF08467FEA236386
:100CB8000146420206BF5FEA412390EA010F40F471
:100CC800800070474FF0000304E000BF10F00043BD
:100CD80048BF40425FEA000C08BF704743F09643A4
:100CE80001464FF000001CE050EA010208BF7047BF
:100CF8004FF000030AE000BF50EA010208BF704746
:100D080011F0004302D5404261EB41015FEA010C5A
:100D180002BF84460146002043F0B64308BFA3F152
:100D28008053A3F50003BCFA8CF2083AA3EBC25334
:100D380010DB01FA02FC634400FA02FCC2F1200253
:100D4800BCF1004F20FA02F243EB020008BF20F08A
:100D58000100704702F1200201FA02FCC2F12002F0
:100D680050EA4C0021FA02F243EB020008BF20EAE5
:100D7800DC70704742000ED2B2F1FE4F0BD34FF039
:100D88009E03B3EB126209D44FEA002343F00043F9
:100D980023FA02F070474FF00000704712F1610F1C
:100DA80001D1420202D14FF0FF3070474FF00000EE
:100DB800704700BF80B500AF174B184A1A60164B32
:100DC80003225A60144B00229A60134B0022DA6007
:100DD800114B4FF4C0221A610F4B4FF440125A6165
:100DE8000D4B00221A760C4B01225A760A4B01222F
:100DF8009A76094B0022DA76074B00221A77064BBF
:100E080000225A77044800F013FD0346002B01D056
:100E180000F026F900BF80BDF40100200064004006
:100E280080B58AB000AF786007F1180300221A6015
:100E38005A609A60DA607B681B682E4A934255D1E3
:100E48002D4BDB692C4A43F00073D3612A4BDB69D5
:100E580003F000737B617B69274B9B69264A43F04B
:100E680001039361244B9B6903F001033B613B69D8
:100E7800214B9B69204A43F0040393611E4B9B69F5
:100E880003F00403FB60FB684FF40063BB610023BD
:100E9800FB6100233B6207F118031946174802F06B
:100EA800E3F84FF48053BB610223FB6103237B62A9
:100EB80007F118031946114802F0D6F80022042158
:100EC800142001F016FC142001F02FFC002203214D
:100ED800152001F00EFC152001F027FC002203214B
:100EE800162001F006FC162001F01FFC00BF283771
:100EF800BD4680BD0064004000100240000801406B
:100F080080B582B000AF104B5B690F4A43F0020313
:100F180053610D4B5B6903F002037B607B68002221
:100F280003213A2001F0E5FB3A2001F0FEFB002204
:100F380003213B2001F0DDFB3B2001F0F6FB00BF65
:100F48000837BD4680BD00BF0010024080B485B0A0
:100F580000AF144B9B69134A43F020039361114B74
:100F68009B6903F02003FB60FB680E4B9B690D4AED
:100F780043F0040393610B4B9B6903F00403BB60CC
:100F8800BB68084B9B69074A43F010039361054B04
:100F98009B6903F010037B607B6800BF1437BD4674
:100FA80080BC70470010024080B500AF00F0BAFB6B
:100FB80000F011F8FFF7CAFFFFF7A2FF00F06AFA86
:100FC800FFF7F8FE00F0C8F900F03AFA04F0BAFCAE
:100FD80004F0F8FCFCE780B590B000AF07F1180307
:100FE80028220021184607F019F93B1D00221A6033
:100FF8005A609A60DA601A610123BB614FF480334A
:10100800FB6100233B620123BB6202237B634FF435
:101018008033BB634FF4E013FB6307F118031846F2
:1010280002F0B6F90346002B01D000F019F80F239F
:101038007B600223BB600023FB604FF480633B614D
:1010480000237B613B1D0221184602F023FC034666
:10105800002B01D000F004F800BF4037BD4680BD2A
:1010680080B400AF72B600BF00BFFDE780B485B0A2
:1010780000AF154B9B69144A43F001039361124B6F
:101088009B6903F00103BB60BB680F4BDB690E4A29
:1010980043F08053D3610C4BDB6903F080537B60D2
:1010A8007B680A4B5B68FB60FB6823F0E063FB60CE
:1010B800FB6843F00073FB60044AFB68536000BFA1
:1010C8001437BD4680BC7047001002400000014044
:1010D80080B400AF00BFFDE780B400AF00BFFDE7FC
:1010E80080B400AF00BFFDE780B400AF00BFFDE7EC
:1010F80080B400AF00BFFDE780B400AF00BFBD46BD
:1011080080BC704780B400AF00BFBD4680BC70474C
:1011180080B400AF00BFBD4680BC704780B500AF4B
:1011280000F046FB00BF80BD80B500AF024800F06C
:10113800F7FF00BF80BD00BFF401002080B500AFFD
:10114800024800F0EDFF00BF80BD00BFF4010020A1
:1011580080B500AF024800F0E3FF00BF80BD00BFCC
:10116800F401002080B500AF024802F070FD00BF16
:1011780080BD00BF2002002080B500AF024803F008
:10118800D5FA00BF80BD00BF6802002080B500AF5F
:10119800024803F0CBFA00BF80BD00BFB0020020B8
:1011A80080B500AF024801F0F5FC00BF80BD00BF6C
:1011B800F802002080B500AF024801F0EBFC00BF48
:1011C80080BD00BF3C03002080B400AF0123184657
:1011D800BD4680BC704780B582B000AF786039608A
:1011E80007F06EF8034616221A604FF0FF331846D0
:1011F8000837BD4680BD80B582B000AF78604FF03B
:10120800FF317868FFF7E7FF00BFFDE780B586B0DC
:1012180000AFF860B9607A6000237B610AE0AFF341
:1012280000800146BB685A1CBA60CAB21A707B6952
:1012380001337B617A697B689A42F0DB7B681846E8
:101248001837BD4680BD80B586B000AFF860B9607C
:101258007A6000237B6109E0BB685A1CBA601B787E
:101268001846AFF300807B6901337B617A697B683C
:101278009A42F1DB7B6818461837BD4680BD80B4BA
:1012880083B000AF78604FF0FF3318460C37BD4687
:1012980080BC704780B483B000AF786039603B6829
:1012A8004FF400525A60002318460C37BD4680BCE4
:1012B800704780B483B000AF7860012318460C37BC
:1012C800BD4680BC704780B485B000AFF860B96097
:1012D8007A60002318461437BD4680BC704700006A
:1012E80080B586B000AF7860144A154BD31A7B617D
:1012F8007B693B61134B1B68002B02D1114B124ACF
:101308001A60104B1A687B6813443A699A4207D2EC
:1013180006F0D6FF03460C221A604FF0FF3309E0AF
:10132800084B1B68FB60074B1A687B681344054A27
:101338001360FB6818461837BD4680BD00C0002002
:10134800000400001C0200209012002080B400AFAE
:1013580000BFBD4680BC704780B586B000AF07F1BE
:10136800080300221A605A609A60DA603B4600223D
:101378001A605A601D4B1E4A1A601C4B47225A605D
:101388001A4B00229A60194B4CF24F32DA60174B15
:1013980000221A61154B00229A61144802F008FCD9
:1013A8000346002B01D0FFF75BFE4FF48053BB6070
:1013B80007F1080319460D4802F039FD0346002BD2
:1013C80001D0FFF74DFE00233B6000237B603B46C6
:1013D8001946064802F02AFF0346002B01D0FFF702
:1013E8003FFE00BF1837BD4680BD00BF2002002069
:1013F800000C004080B584B000AF78607B681B6843
:101408000D4A934213D10D4BDB690C4A43F0080394
:10141800D3610A4BDB6903F00803FB60FB68002219
:101428000E21322001F065F9322001F07EF900BF6B
:101438001037BD4680BD00BF000C004000100240C0
:1014480080B500AF114B124A1A60104B4FF4165278
:101458005A600E4B00229A600C4B0022DA600B4B4C
:1014680000221A61094B0C225A61084B00229A612A
:10147800064B0022DA61054802F056FF0346002BAE
:1014880001D0FFF7EDFD00BF80BD00BF680200205E
:10149800004C004080B500AF114B124A1A60104B47
:1014A8004FF416525A600E4B00229A600C4B0022E1
:1014B800DA600B4B00221A61094B0C225A61084B67
:1014C80000229A61064B0022DA61054802F02CFFDF
:1014D8000346002B01D0FFF7C3FD00BF80BD00BF4E
:1014E800B00200200050004080B58CB000AF78609A
:1014F80007F1200300221A605A609A60DA607B685C
:101508001B686C4A934240F087806B4BDB696A4AE0
:1015180043F40023D361684BDB6903F40023FB61C8
:10152800FB69654B9B69644A43F010039361624B06
:101538009B6903F01003BB61BB694FF480633B6296
:1015480002237B620323FB6207F1200319465B48F1
:1015580001F08AFD4FF400633B6200237B620023A5
:10156800BB6207F120031946544801F07DFD544B36
:10157800544A1A60524B00225A60514B00229A601A
:101588004F4B8022DA604E4B00221A614C4B0022EE
:101598005A614B4B00229A61494B0022DA61484854
:1015A80001F0DEF80346002B01D0FFF759FD7B68F8
:1015B800434ADA63424A7B685362434B434A1A60A0
:1015C800414B10225A60404B00229A603E4B8022C9
:1015D800DA603D4B00221A613B4B00225A613A4BBC
:1015E80000229A61384B0022DA61374801F0B8F8D6
:1015F8000346002B01D0FFF733FD7B68324A9A631C
:10160800314A7B68536200220421342001F071F8CA
:10161800342001F08AF849E07B681B682C4A934221
:1016280044D1254BDB69244A43F48013D361224B10
:10163800DB6903F480137B617B691F4B9B691E4A3E
:1016480043F0100393611C4B9B6903F010033B614B
:101658003B69194B9B69184A43F020039361164B69
:101668009B6903F02003FB60FB684FF480533B62E7
:1016780002237B620323FB6207F1200319460F480C
:1016880001F0F2FC04233B6200237B620023BB626F
:1016980007F1200319460F4801F0E6FC0022022159
:1016A800352001F026F8352001F03FF800BF30372B
:1016B800BD4680BD004C00400010024000100140B3
:1016C800F8020020300402403C0300205804024085
:1016D8000050004000140140FFF738FE0B480C4949
:1016E8000C4A002302E0D458C4500433C4188C4276
:1016F800F9D3094A094C002301E013600432A242DD
:10170800FBD306F0E3FDFFF74FFC70470000002015
:10171800D401002098A90008D80100208C120020CC
:10172800FEE7000080B500AF084B1B68074A43F08E
:1017380010031360032000F0D1FF0F2000F008F819
:10174800FFF794FC0023184680BD00BF002002402C
:1017580080B582B000AF7860124B1A68124B1B78C4
:1017680019464FF47A73B3FBF1F3B2FBF3F318465F
:1017780000F0E9FF0346002B01D001230EE07B684F
:101788000F2B0AD8002279684FF0FF3000F0B1FF24
:10179800064A7B681360002300E0012318460837D7
:1017A800BD4680BD00000020080000200400002085
:1017B80080B400AF054B1B781A46054B1B681344D1
:1017C800034A136000BFBD4680BC70470800002074
:1017D8008003002080B400AF024B1B681846BD464A
:1017E80080BC70478003002080B584B000AF78606B
:1017F800FFF7F0FFB8607B68FB60FB68B3F1FF3F61
:1018080005D00A4B1B781A46FB681344FB6000BFDF
:10181800FFF7E0FF0246BB68D31AFA689A42F7D886
:1018280000BF00BF1037BD4680BD00BF08000020C4
:1018380080B584B000AF78607B68002B01D10123AC
:10184800EDE07B6893F82030DBB2002B02D178689A
:10185800FFF7E6FA7B681B681A687B681B6842F02A
:1018680001021A60FFF7B6FFF86012E0FFF7B2FF57
:101878000246FB68D31A0A2B0BD97B685B6A43F4D0
:1018880000327B685A627B68052283F82020012396
:10189800C5E07B681B685B6803F00103002BE5D09B
:1018A8007B681B681A687B681B6822F002021A6052
:1018B800FFF790FFF86012E0FFF78CFF0246FB6825
:1018C800D31A0A2B0BD97B685B6A43F400327B6816
:1018D8005A627B68052283F8202001239FE07B68F9
:1018E8001B685B6803F00203002BE5D17B681B7E55
:1018F800012B08D17B681B681A687B681B6842F05B
:1019080080021A6007E07B681B681A687B681B689E
:1019180022F080021A607B685B7E012B08D17B680D
:101928001B681A687B681B6842F040021A6007E06F
:101938007B681B681A687B681B6822F040021A6083
:101948007B689B7E012B08D17B681B681A687B68C3
:101958001B6842F020021A6007E07B681B681A685F
:101968007B681B6822F020021A607B68DB7E012BF3
:1019780008D17B681B681A687B681B6822F0100214
:101988001A6007E07B681B681A687B681B6842F06E
:1019980010021A607B681B7F012B08D17B681B68CB
:1019A8001A687B681B6842F008021A6007E07B68C7
:1019B8001B681A687B681B6822F008021A607B683B
:1019C8005B7F012B08D17B681B681A687B681B68E2
:1019D80042F004021A6007E07B681B681A687B689B
:1019E8001B6822F004021A607B689A687B68DB68CF
:1019F8001A437B681B691A437B685B6942EA0301E7
:101A08007B685B685A1E7B681B680A43DA617B68DF
:101A180000225A627B68012283F82020002318469E
:101A28001037BD4680BD80B487B000AF786039609C
:101A38007B681B687B617B6893F82030FB74FB7CB8
:101A4800012B03D0FB7C022B40F0AA807B69D3F8E2
:101A5800003243F001027B69C3F800223B685B69EE
:101A680003F01F03012202FA03F3FB607B69D3F83A
:101A78001C22FB68DB431A407B69C3F81C223B68C5
:101A8800DB69002B23D17B69D3F80C22FB68DB438D
:101A98001A407B69C3F80C223B68DB6819043B6871
:101AA8005B689BB23A68526919437B69483243F8CC
:101AB80032103B689B6819043B681B689AB23B6804
:101AC8005B690A4379694833DB000B445A603B6819
:101AD800DB69012B22D17B69D3F80C22FB681A43FE
:101AE8007B69C3F80C223B681B6819043B685B6878
:101AF8009BB23A68526919437B69483243F83210FD
:101B08003B689B6819043B68DB689AB23B685B6971
:101B18000A4379694833DB000B445A603B689B6988
:101B2800002B09D17B69D3F80422FB68DB431A40F8
:101B38007B69C3F8042207E07B69D3F80422FB68B9
:101B48001A437B69C3F804223B681B69002B09D13F
:101B58007B69D3F81422FB68DB431A407B69C3F81E
:101B6800142207E07B69D3F81422FB681A437B69C7
:101B7800C3F814223B681B6A012B07D17B69D3F891
:101B88001C22FB681A437B69C3F81C227B69D3F8C3
:101B9800003223F001027B69C3F80022002306E02B
:101BA8007B685B6A43F480227B685A62012318468B
:101BB8001C37BD4680BC704780B584B000AF7860E4
:101BC8007B6893F82030DBB2012B2ED17B68022290
:101BD80083F820207B681B681A687B681B6822F0E2
:101BE80001021A60FFF7F6FDF86012E0FFF7F2FD58
:101BF8000246FB68D31A0A2B0BD97B685B6A43F44D
:101C080000327B685A627B68052283F82020012312
:101C180012E07B681B685B6803F00103002BE5D1C9
:101C28007B6800225A62002306E07B685B6A43F403
:101C380000227B685A62012318461037BD4680BDD2
:101C480080B489B000AFF860B9607A603B60FB6827
:101C580093F82030FB77FB681B689B68BB61FB7FB0
:101C6800012B03D0FB7F022B40F0AD80BB6903F052
:101C78008063002B0AD1BB6903F00063002B05D1F8
:101C8800BB6903F08053002B00F09580BB691B0EE5
:101C980003F003037B6101227B699A403B681A6069
:101CA800BB689B68002B0DD1BB681B685A05BB68D5
:101CB800DB68F96809681A437B6918331B010B4410
:101CC8001A600FE0BB685B68DA00BB689B681A4360
:101CD800BB68DB68F96809681A437B6918331B011C
:101CE8000B441A60FB681968BB681A697B6918336A
:101CF8001B010B4404331A60BB681B7D012B11D1F7
:101D0800FB681A687B6918331B01134404331B688A
:101D1800FA68116843F480727B6918331B010B441D
:101D280004331A607B6807331B781A067B6806330E
:101D38001B781B041A437B6805331B781B0213436B
:101D48007A68043212781046FA68116843EA000289
:101D58007B691B010B4403F5C6731A607B68033368
:101D68001B781A067B6802331B781B041A437B68AE
:101D780001331B781B0213437A6812781046FA68FD
:101D8800116843EA00027B691B010B4403F5C47325
:101D98001A60FB681A687B6918331B0113441B68B7
:101DA800FA68116843F001027B6918331B010B4480
:101DB8001A6000230EE0FB685B6A43F40012FB68BC
:101DC8005A62012306E0FB685B6A43F48022FB68E1
:101DD8005A62012318462437BD4680BC704780B438
:101DE80085B000AF78600023FB607B6893F82030F3
:101DF800FB72FB7A012B02D0FB7A022B1DD17B6888
:101E08001B689B6803F08063002B02D0FB680133DA
:101E1800FB607B681B689B6803F00063002B02D0A3
:101E2800FB680133FB607B681B689B6803F0805389
:101E3800002B02D0FB680133FB60FB68184614379F
:101E4800BD4680BC704780B487B000AFF860B96009
:101E58007A603B60FB6893F82030FB75FB7D012BB3
:101E680003D0FB7D022B40F00381BB68002B0ED111
:101E7800FB681B68DB6803F00303002B16D1FB68C3
:101E88005B6A43F40012FB685A620123F7E0FB68BF
:101E98001B681B6903F00303002B07D1FB685B6A0F
:101EA80043F40012FB685A620123E8E0FB681A68F1
:101EB800BB681B331B0113441B6803F004027B68D7
:101EC8009A607B689B68002B0CD1FB681A68BB681A
:101ED8001B331B0113441B685B0DC3F30A027B68A9
:101EE8001A600BE0FB681A68BB681B331B011344BC
:101EF8001B68DB0823F060427B685A60FB681A683D
:101F0800BB681B331B0113441B6803F002027B6888
:101F1800DA60FB681A68BB681B331B01134404337F
:101F28001B6803F00803002B03D07B6808221A61A2
:101F38000BE0FB681A68BB681B331B0113440433AE
:101F48001B6803F00F027B681A61FB681A68BB689C
:101F58001B331B01134404331B681B0ADAB27B686A
:101F68009A61FB681A68BB681B331B01134404336E
:101F78001B681B0C9AB27B685A61FB681A68BB68BD
:101F88001B01134403F5DC731B68DAB23B681A7053
:101F9800FB681A68BB681B01134403F5DC731B68F4
:101FA8001A0A3B680133D2B21A70FB681A68BB6818
:101FB8001B01134403F5DC731B681A0C3B680233DE
:101FC800D2B21A70FB681A68BB681B01134403F588
:101FD800DC731B681A0E3B680333D2B21A70FB68B5
:101FE8001A68BB681B01134403F5DE731A683B6863
:101FF8000433D2B21A70FB681A68BB681B01134419
:1020080003F5DE731B681A0A3B680533D2B21A70EF
:10201800FB681A68BB681B01134403F5DE731B6871
:102028001A0C3B680633D2B21A70FB681A68BB6890
:102038001B01134403F5DE731B681A0E3B68073354
:10204800D2B21A70BB68002B08D1FB681B68DA682B
:10205800FB681B6842F02002DA6007E0FB681B6837
:102068001A69FB681B6842F020021A61002306E027
:10207800FB685B6A43F48022FB685A6201231846B6
:102088001C37BD4680BC704780B485B000AF78600F
:1020980039600023FB607B6893F82030FB72FB7A81
:1020A800012B02D0FB7A022B0FD13B68002B06D103
:1020B8007B681B68DB6803F00303FB6005E07B6853
:1020C8001B681B6903F00303FB60FB6818461437A1
:1020D800BD4680BC704780B485B000AF7860396079
:1020E8007B6893F82030FB73FB7B012B02D0FB7BD2
:1020F800022B09D17B681B6859697B681B683A68A1
:102108000A435A61002306E07B685B6A43F4802235
:102118007B685A62012318461437BD4680BC704755
:1021280080B58AB000AF786000237B627B681B684B
:102138005B693B627B681B685B68FB617B681B684B
:102148009B68BB617B681B68DB687B617B681B687D
:102158001B693B617B681B689B69FB603B6A03F0FA
:102168000103002B7CD0BB6903F00103002B23D0B3
:102178007B681B6801229A60BB6903F00203002B8D
:1021880003D0786800F083F916E0BB6903F0040314
:10219800002B04D07B6A43F400637B620CE0BB69CC
:1021A80003F00803002B04D07B6A43F480537B625E
:1021B80002E0786800F086F9BB6903F48073002BAD
:1021C80024D07B681B684FF480729A60BB6903F463
:1021D8000073002B03D0786800F062F916E0BB6941
:1021E80003F48063002B04D07B6A43F400537B62C2
:1021F8000CE0BB6903F40063002B04D07B6A43F452
:1022080080437B6202E0786800F065F9BB6903F4FB
:102218008033002B24D07B681B684FF480329A608F
:10222800BB6903F40033002B03D0786800F041F950
:1022380016E0BB6903F48023002B04D07B6A43F4C7
:1022480000437B620CE0BB6903F40023002B04D03D
:102258007B6A43F480337B6202E0786800F044F9DB
:102268003B6A03F00803002B0CD07B6903F01003D2
:10227800002B07D07B6A43F400737B627B681B6882
:102288001022DA603B6A03F00403002B0BD07B6951
:1022980003F00803002B06D07B681B680822DA606D
:1022A800786800F02AF93B6A03F00203002B09D092
:1022B8007B681B68DB6803F00303002B02D0786897
:1022C80003F07EFC3B6A03F04003002B0CD03B6913
:1022D80003F01003002B07D07B6A43F480637B6212
:1022E8007B681B6810221A613B6A03F02003002BED
:1022F8000BD03B6903F00803002B06D07B681B68F2
:1023080008221A61786800F001F93B6A03F01003AB
:10231800002B09D07B681B681B6903F00303002BA3
:1023280002D0786803F0BEFC3B6A03F40033002B4C
:102338000BD0FB6903F01003002B06D07B681B68E9
:1023480010225A60786800F0EAF83B6A03F4803398
:10235800002B0BD0FB6903F00803002B06D07B6829
:102368001B6808225A60786800F0E2F83B6A03F4B8
:102378000043002B7BD0FB6903F00403002B72D0D1
:102388003B6A03F48073002B08D0FB6803F0010359
:10239800002B03D07B6A43F001037B623B6A03F4A2
:1023A8000073002B08D0FB6803F00203002B03D056
:1023B8007B6A43F002037B623B6A03F48063002B71
:1023C80008D0FB6803F00403002B03D07B6A43F0BA
:1023D80004037B623B6A03F40063002B43D0FB6871
:1023E80003F07003002B3ED0FB6803F07003602BF2
:1023F8002BD0602B2ED8502B22D0502B2AD8402BF4
:1024080019D0402B26D8302B10D0302B22D8102BA7
:1024180002D0202B05D01DE07B6A43F008037B62C5
:1024280019E07B6A43F010037B6214E07B6A43F097
:1024380020037B620FE07B6A43F040037B620AE083
:102448007B6A43F080037B6205E07B6A43F4807318
:102458007B6200E000BF7B681B689A697B681B6829
:1024680022F070029A617B681B6804225A607B6ABA
:10247800002B08D07B685A6A7B6A1A437B685A62C9
:10248800786803F081FC00BF2837BD4680BD80B462
:1024980083B000AF786000BF0C37BD4680BC704782
:1024A80080B483B000AF786000BF0C37BD4680BCF5
:1024B800704780B483B000AF786000BF0C37BD466A
:1024C80080BC704780B483B000AF786000BF0C3721
:1024D800BD4680BC704780B483B000AF786000BF51
:1024E8000C37BD4680BC704780B483B000AF7860BD
:1024F80000BF0C37BD4680BC704780B483B000AFC6
:10250800786000BF0C37BD4680BC704780B483B08C
:1025180000AF786000BF0C37BD4680BC704780B400
:1025280083B000AF786000BF0C37BD4680BC7047F1
:1025380080B483B000AF786000BF0C37BD4680BC64
:102548007047000080B485B000AF78607B6803F006
:102558000703FB600C4BDB68BB60BA684FF6FF03F0
:102568001340BB60FB681A02BB68134343F0BF63A8
:1025780043F40033BB60044ABB68D36000BF143720
:10258800BD4680BC704700BF00ED00E080B400AFDE
:10259800044BDB681B0A03F007031846BD4680BCE2
:1025A800704700BF00ED00E080B483B000AF034681
:1025B800FB7197F90730002B0BDBFB7903F01F0247
:1025C800064997F907305B09012000FA02F241F841
:1025D800232000BF0C37BD4680BC704700E100E0F7
:1025E80080B483B000AF03463960FB7197F90730B8
:1025F800002B0ADB3B68DAB20C4997F90730120165
:10260800D2B20B4483F800230AE03B68DAB20849E7
:10261800FB7903F00F03043B1201D2B20B441A7684
:1026280000BF0C37BD4680BC704700BF00E100E02A
:1026380000ED00E080B489B000AFF860B9607A605E
:10264800FB6803F00703FB61FB69C3F10703042B75
:1026580028BF0423BB61FB690433062B02D9FB693D
:10266800033B00E000237B614FF0FF32BB6902FAB5
:1026780003F3DA43BB681A407B699A404FF0FF3195
:102688007B6901FA03F3D9437B680B40134318466F
:102698002437BD4680BC704780B582B000AF7860F3
:1026A8007B68013BB3F1807F01D301230FE00A4A25
:1026B8007B68013B53600F214FF0FF30FFF790FF1D
:1026C800054B00229A60044B07221A600023184623
:1026D8000837BD4680BD00BF10E000E080B582B07D
:1026E80000AF78607868FFF72DFF00BF0837BD4658
:1026F80080BD80B586B000AF0346B9607A60FB73D1
:1027080000237B61FFF742FF78617A68B9687869CE
:10271800FFF790FF024697F90F3011461846FFF76A
:102728005FFF00BF1837BD4680BD80B582B000AFDF
:102738000346FB7197F907301846FFF735FF00BFCE
:102748000837BD4680BD80B582B000AF7860786834
:10275800FFF7A2FF034618460837BD4680BD0000B4
:1027680080B485B000AF78600023FB607B68002BE5
:1027780001D1012359E07B681B681A462D4B9A4208
:102788000FD87B681B681A462B4B13442B4AA2FBB5
:1027980003231B099A007B681A647B68284ADA635A
:1027A8000EE07B681B681A46264B1344234AA2FB9B
:1027B80003231B099A007B681A647B68224ADA6340
:1027C8007B68022283F821207B681B681B68FB60FA
:1027D800FB6823F47F5323F03003FB607B685A685F
:1027E8007B689B681A437B68DB681A437B681B69B4
:1027F8001A437B685B691A437B689B691A437B6849
:10280800DB691343FA681343FB607B681B68FA684B
:102818001A607B6800229A637B68012283F8212072
:102828007B68002283F82020002318461437BD4611
:1028380080BC704707040240F8FFFDBFCDCCCCCC6C
:1028480000000240F8FBFDBF0004024080B586B0DE
:1028580000AFF860B9607A603B600023FB75FB68E5
:1028680093F82030012B01D102234BE0FB680122B1
:1028780083F82020FB6893F82130DBB2012B3AD192
:10288800FB68022283F82120FB6800229A63FB6818
:102898001B681A68FB681B6822F001021A603B6813
:1028A8007A68B968F86800F0B1FBFB68DB6A002B4E
:1028B80008D0FB681B681A68FB681B6842F00E02A8
:1028C8001A600FE0FB681B681A68FB681B6822F037
:1028D80004021A60FB681B681A68FB681B6842F0F0
:1028E8000A021A60FB681B681A68FB681B6842F0DA
:1028F80001021A6005E0FB68002283F82020022309
:10290800FB75FB7D18461837BD4680BD80B485B081
:1029180000AF78600023FB737B6893F82130DBB24B
:10292800022B08D07B6804229A637B68002283F814
:102938002020012320E07B681B681A687B681B68DD
:1029480022F00E021A607B681B681A687B681B6895
:1029580022F001021A607B681A6C7B68DB6B01212C
:1029680001FA02F25A607B68012283F821207B6811
:10297800002283F82020FB7B18461437BD4680BC14
:102988007047000080B584B000AF78600023FB7307
:102998007B6893F82130DBB2022B05D07B680422D8
:1029A8009A630123FB73D6E07B681B681A687B680F
:1029B8001B6822F00E021A607B681B681A687B6825
:1029C8001B6822F001021A607B681B681A46644B78
:1029D8009A4258D97B681B68624A93424FD07B68F9
:1029E8001B68614A934248D07B681B685F4A9342E0
:1029F80040D07B681B685E4A934238D07B681B686E
:102A08005C4A934230D07B681B685B4A934228D06B
:102A18007B681B68524A934220D07B681B68574AE0
:102A2800934219D07B681B68554A934212D07B6841
:102A38001B68544A93420AD07B681B68524A9342E7
:102A480002D14FF480531BE04FF4803318E04FF469
:102A5800807315E0102313E0012311E04FF0807319
:102A68000EE04FF480130BE04FF4803308E04FF48E
:102A7800805305E04FF4807302E0102300E0012347
:102A8800424A536057E07B681B68364A93424FD0EE
:102A98007B681B68344A934248D07B681B68334A7A
:102AA800934240D07B681B68314A934238D07B6898
:102AB8001B68304A934230D07B681B682E4A934289
:102AC80028D07B681B68264A934220D07B681B6805
:102AD8002A4A934219D07B681B68294A934212D02C
:102AE8007B681B68274A93420AD07B681B68264A82
:102AF800934202D14FF480531BE04FF4803318E027
:102B08004FF4807315E0102313E0012311E04FF018
:102B180080730EE04FF480130BE04FF4803308E02D
:102B28004FF4805305E04FF4807302E0102300E077
:102B38000123174A53607B68012283F821207B68B0
:102B4800002283F820207B685B6B002B03D07B6816
:102B58005B6B78689847FB7B18461037BD4680BD8D
:102B680080000240080002401C0002403000024081
:102B780044000240580002406C0002400804024031
:102B88001C04024030040240440402400004024095
:102B98000000024080B584B000AF78607B68DB6BD2
:102BA8001B68FB607B681B681B68BB607B681B6CD1
:102BB80004229A40FB681340002B00F0F180BB68A8
:102BC80003F00403002B00F0EB807B681B681B6894
:102BD80003F02003002B07D17B681B681A687B6809
:102BE8001B6822F004021A607B681B681A465F4B58
:102BF8009A4258D97B681B685D4A93424FD07B68DC
:102C08001B685C4A934248D07B681B685A4A9342C7
:102C180040D07B681B68594A934238D07B681B6850
:102C2800574A934230D07B681B68564A934228D053
:102C38007B681B684D4A934220D07B681B68524AC8
:102C4800934219D07B681B68504A934212D07B6824
:102C58001B684F4A93420AD07B681B684D4A9342CF
:102C680002D14FF480431BE04FF4802318E04FF467
:102C7800806315E0402313E0042311E04FF08063E4
:102C88000EE04FF480030BE04FF4802308E04FF48C
:102C9800804305E04FF4806302E0402300E0042312
:102CA8003D4A536057E07B681B68314A93424FD0D6
:102CB8007B681B682F4A934248D07B681B682E4A62
:102CC800934240D07B681B682C4A934238D07B687B
:102CD8001B682B4A934230D07B681B68294A934271
:102CE80028D07B681B68214A934220D07B681B68E8
:102CF800254A934219D07B681B68244A934212D014
:102D08007B681B68224A93420AD07B681B68214A69
:102D1800934202D14FF480431BE04FF4802318E024
:102D28004FF4806315E0402313E0042311E04FF0D3
:102D380080630EE04FF480030BE04FF4802308E03B
:102D48004FF4804305E04FF4806302E0402300E045
:102D58000423124A53607B68DB6A002B00F036813B
:102D68007B68DB6A7868984730E100BF80000240E2
:102D7800080002401C0002403000024044000240AB
:102D8800580002406C000240080402401C04024043
:102D980030040240440402400004024000000240A3
:102DA8007B681B6C02229A40FB681340002B00F0E2
:102DB800DD80BB6803F00203002B00F0D7807B683E
:102DC8001B681B6803F02003002B0BD17B681B6872
:102DD8001A687B681B6822F00A021A607B68012265
:102DE80083F821207B681B681A467B4B9A4258D986
:102DF8007B681B68794A93424FD07B681B68784A86
:102E0800934248D07B681B68764A934240D07B68DF
:102E18001B68754A934238D07B681B68734A934293
:102E280030D07B681B68724A934228D07B681B6845
:102E3800694A934220D07B681B686E4A934219D036
:102E48007B681B686C4A934212D07B681B686B4A8C
:102E580093420AD07B681B68694A934202D14FF4B7
:102E680000531BE04FF4003318E04FF4007315E0F3
:102E7800202313E0022311E04FF000730EE04FF41B
:102E880000130BE04FF4003308E04FF4005305E063
:102E98004FF4007302E0202300E00223594A5360F4
:102EA80057E07B681B684D4A93424FD07B681B688C
:102EB8004B4A934248D07B681B684A4A934240D0A9
:102EC8007B681B68484A934238D07B681B68474A2E
:102ED800934230D07B681B68454A934228D07B6870
:102EE8001B683D4A934220D07B681B68414A934245
:102EF80019D07B681B68404A934212D07B681B68D4
:102F08003E4A93420AD07B681B683D4A934202D1ED
:102F18004FF400531BE04FF4003318E04FF40073F4
:102F280015E0202313E0022311E04FF000730EE0B8
:102F38004FF400130BE04FF4003308E04FF4005354
:102F480005E04FF4007302E0202300E002232E4A3C
:102F580053607B68002283F820207B689B6A002BE3
:102F680034D07B689B6A786898472FE07B681B6C35
:102F780008229A40FB681340002B28D0BB6803F056
:102F88000803002B23D07B681B681A687B681B68C2
:102F980022F00E021A607B681A6C7B68DB6B0121D9
:102FA80001FA02F25A607B6801229A637B68012267
:102FB80083F821207B68002283F820207B681B6B24
:102FC800002B04D07B681B6B7868984700BF00BF54
:102FD8001037BD4680BD00BF800002400800024097
:102FE8001C000240300002404400024058000240E9
:102FF8006C000240080402401C04024030040240F5
:1030080044040240000402400000024080B485B03D
:1030180000AFF860B9607A603B60FB681A6CFB68C7
:10302800DB6B012101FA02F25A60FB681B683A68FF
:103038005A60FB685B68102B08D1FB681B687A68CC
:103048009A60FB681B68BA68DA6007E0FB681B686F
:10305800BA689A60FB681B687A68DA6000BF143740
:10306800BD4680BC7047000080B48BB000AF78606C
:10307800396000237B6200233B6279E101227B6A8D
:1030880002FA03F3FB613B681B68FA691340BB61F2
:10309800BA69FB699A4240F068813B685B68964A66
:1030A80093425ED0944A934275D8944A934258D03A
:1030B800924A93426FD8924A934252D0904A93428E
:1030C80069D8904A93424CD08E4A934263D88E4A2C
:1030D800934246D08C4A93425DD8122B2AD8122BA1
:1030E80059D801A252F823F06B3100084531000885
:1030F80057310008993100089F3100089F310008B6
:103108009F3100089F3100089F3100089F31000857
:103118009F3100089F3100089F3100089F31000847
:103128009F3100089F3100089F3100084D31000889
:1031380061310008754A934213D02CE03B68DB6884
:103148003B6229E03B68DB6804333B6224E03B6870
:10315800DB6808333B621FE03B68DB680C333B628B
:103168001AE03B689B68002B02D104233B6213E002
:103178003B689B68012B05D108233B627B68FA6991
:103188001A6109E008233B627B68FA695A6103E027
:1031980000233B6200E000BFBB69FF2B01D87B68BE
:1031A80001E07B6804337B61BB69FF2B02D87B6A33
:1031B8009B0002E07B6A083B9B003B617B691A68C5
:1031C8000F213B6901FA03F3DB431A40396A3B6973
:1031D80001FA03F31A437B691A603B685B6803F0E2
:1031E8008053002B00F0C180494B9B69484A43F04B
:1031F80001039361464B9B6903F00103BB60BB6805
:10320800444A7B6A9B08023352F82330FB607B6A8E
:1032180003F003039B000F2202FA03F3DB43FA686F
:103228001340FB607B683C4A93421FD07B683B4A53
:10323800934219D07B683A4A934213D07B68394A43
:1032480093420DD07B68384A934207D07B68374A4F
:10325800934201D105230AE0062308E0042306E08F
:10326800032304E0022302E0012300E000237A6A3A
:1032780002F0030292009340FA681343FB60254969
:103288007B6A9B080233FA6841F823203B685B6835
:1032980003F48013002B06D0254B9A682449BB6998
:1032A80013438B6006E0224B9A68BB69DB432049D5
:1032B80013408B603B685B6803F40013002B06D057
:1032C8001B4BDA681A49BB691343CB6006E0184BFD
:1032D800DA68BB69DB4316491340CB603B685B681F
:1032E80003F40033002B25D0114B5A681049BB69F1
:1032F80013434B6025E000BF00003210000031107E
:10330800000022100000211000001210000011100F
:10331800001002400000014000080140000C01407C
:10332800001001400014014000180140001C014039
:1033380000040140154B5A68BB69DB43134913402D
:103348004B603B685B6803F48033002B06D00F4B5F
:103358001A680E49BB6913430B6006E00B4B1A68E9
:10336800BB69DB43094913400B607B6A01337B620D
:103378003B681A687B6A22FA03F3002B7FF47EAE5F
:1033880000BF00BF2C37BD4680BC70470004014019
:1033980080B586B000AF78607B68002B01D101232F
:1033A80072E27B681B6803F00103002B00F0878042
:1033B800924B5B6803F00C03042B0CD08F4B5B68BB
:1033C80003F00C03082B12D18C4B5B6803F4803399
:1033D800B3F5803F0BD1894B1B6803F40033002BF6
:1033E8006CD07B685B68002B68D101234CE27B685A
:1033F8005B68B3F5803F06D1804B1B687F4A43F476
:10340800803313602EE07B685B68002B0CD17B4B0C
:103418001B687A4A23F480331360784B1B68774A19
:1034280023F4802313601DE07B685B68B3F5A02F4D
:103438000CD1724B1B68714A43F4802313606F4BA5
:103448001B686E4A43F4803313600BE06B4B1B68B8
:103458006A4A23F480331360684B1B68674A23F475
:10346800802313607B685B68002B13D0FEF7B2F9EA
:10347800386108E0FEF7AEF902463B69D31A642BBF
:1034880001D9032300E25D4B1B6803F40033002BD2
:10349800F0D014E0FEF79EF9386108E0FEF79AF9DB
:1034A80002463B69D31A642B01D90323ECE1534B41
:1034B8001B6803F40033002BF0D100E000BF7B68E9
:1034C8001B6803F00203002B63D04C4B5B6803F0CE
:1034D8000C03002B0BD0494B5B6803F00C03082B43
:1034E8001CD1464B5B6803F48033002B16D1434B49
:1034F8001B6803F00203002B05D07B681B69012BB6
:1035080001D00123C0E13D4B1B6823F0F8027B6822
:103518005B69DB00394913430B603AE07B681B6940
:10352800002B20D0364B01221A60FEF753F9386180
:1035380008E0FEF74FF902463B69D31A022B01D97E
:103548000323A1E12D4B1B6803F00203002BF0D0ED
:103558002A4B1B6823F0F8027B685B69DB0027496C
:1035680013430B6015E0264B00221A60FEF732F970
:10357800386108E0FEF72EF902463B69D31A022BA0
:1035880001D9032380E11D4B1B6803F00203002BC4
:10359800F0D17B681B6803F00803002B3AD07B68E6
:1035A8009B69002B19D0174B01221A60FEF712F9FC
:1035B800386108E0FEF70EF902463B69D31A022B80
:1035C80001D9032360E10D4B5B6A03F00203002B72
:1035D800F0D0012000F0CEFA1CE00A4B00221A605D
:1035E800FEF7F8F838610FE0FEF7F4F802463B6999
:1035F800D31A022B08D9032346E100BF001002406A
:103608000000424280044242924B5B6A03F002038C
:10361800002BE9D17B681B6803F00403002B00F042
:10362800A6800023FB758B4BDB6903F08053002BCE
:103638000DD1884BDB69874A43F08053D361854BB2
:10364800DB6903F08053BB60BB680123FB75824BC9
:103658001B6803F48073002B18D17F4B1B687E4ACC
:1036680043F480731360FEF7B5F8386108E0FEF79D
:10367800B1F802463B69D31A642B01D9032303E14D
:10368800754B1B6803F48073002BF0D07B68DB68F4
:10369800012B06D16F4B1B6A6E4A43F0010313627C
:1036A8002DE07B68DB68002B0CD16A4B1B6A694AEA
:1036B80023F001031362674B1B6A664A23F0040375
:1036C80013621CE07B68DB68052B0CD1614B1B6A1D
:1036D800604A43F0040313625E4B1B6A5D4A43F081
:1036E800010313620BE05B4B1B6A5A4A23F0010388
:1036F8001362584B1B6A574A23F0040313627B6812
:10370800DB68002B15D0FEF765F838610AE0FEF794
:1037180061F802463B69D31A41F28832934201D9D3
:103728000323B1E04B4B1B6A03F00203002BEED0DE
:1037380014E0FEF74FF838610AE0FEF74BF802464E
:103748003B69D31A41F28832934201D903239BE0A3
:10375800404B1B6A03F00203002BEED1FB7D012BCB
:1037680005D13C4BDB693B4A23F08053D3617B682E
:10377800DB69002B00F08780364B5B6803F00C0395
:10378800082B61D07B68DB69022B46D1334B0022C2
:103798001A60FEF71FF8386108E0FEF71BF80246CA
:1037A8003B69D31A022B01D903236DE0294B1B680F
:1037B80003F00073002BF0D17B681B6AB3F5803FE0
:1037C80008D1244B5B6823F400327B689B6821494D
:1037D80013434B601F4B5B6823F474127B68196AB0
:1037E8007B685B6A0B431B4913434B601B4B0122ED
:1037F8001A60FDF7EFFF386108E0FDF7EBFF0246BE
:103808003B69D31A022B01D903233DE0114B1B68F6
:1038180003F00073002BF0D035E0104B00221A6043
:10382800FDF7D8FF386108E0FDF7D4FF02463B6991
:10383800D31A022B01D9032326E0064B1B6803F099
:103848000073002BF0D11EE07B68DB69012B07D1E8
:10385800012319E00010024000700040600042425D
:103868000B4B5B68FB60FB6803F480327B681B6A68
:103878009A4206D1FB6803F470127B685B6A9A422D
:1038880001D0012300E0002318461837BD4680BD4B
:103898000010024080B584B000AF786039607B6862
:1038A800002B01D10123D0E06A4B1B6803F007030A
:1038B8003A689A4210D9674B1B6823F0070265499A
:1038C8003B6813430B60634B1B6803F007033A68BC
:1038D8009A4201D00123B8E07B681B6803F0020319
:1038E800002B20D07B681B6803F00403002B05D055
:1038F800594B5B68584A43F4E06353607B681B6824
:1039080003F00803002B05D0534B5B68524A43F47D
:1039180060535360504B5B6823F0F0027B689B68F0
:103928004D4913434B607B681B6803F00103002B70
:1039380040D07B685B68012B07D1474B1B6803F4B9
:103948000033002B15D101237FE07B685B68022BD5
:1039580007D1414B1B6803F00073002B09D10123E9
:1039680073E03D4B1B6803F00203002B01D10123D8
:103978006BE0394B5B6823F003027B685B68364970
:1039880013434B60FDF726FFF8600AE0FDF722FFBE
:103998000246FB68D31A41F28832934201D90323C5
:1039A80053E02D4B5B6803F00C027B685B689B005F
:1039B8009A42EBD1274B1B6803F007033A689A42F7
:1039C80010D2244B1B6823F0070222493B6813439B
:1039D8000B60204B1B6803F007033A689A4201D03A
:1039E800012332E07B681B6803F00403002B08D036
:1039F800194B5B6823F4E0627B68DB681649134364
:103A08004B607B681B6803F00803002B09D0124B3E
:103A18005B6823F460527B681B69DB000E49134323
:103A28004B6000F021F802460B4B5B681B0903F062
:103A38000F030A49CB5C22FA03F3094A1360094BC6
:103A48001B681846FDF784FE002318461037BD464C
:103A580080BD00BF0020024000100240ECA5000815
:103A6800000000200400002080B487B000AF0023CD
:103A7800FB600023BB6000237B6100237B60002385
:103A88003B611E4B5B68FB60FB6803F00C03042B77
:103A980002D0082B03D027E0194B3B6127E0FB68D5
:103AA8009B0C03F00F03174AD35C7B60FB6803F49D
:103AB8008033002B10D0114B5B685B0C03F00103C3
:103AC800114AD35CBB607B680D4A03FB02F2BB68FA
:103AD800B2FBF3F37B6104E07B680C4A02FB03F35F
:103AE8007B617B693B6102E0054B3B6100BF3B6941
:103AF80018461C37BD4680BC704700BF0010024006
:103B080000127A0004A6000814A6000800093D0067
:103B180080B400AF024B1B681846BD4680BC704796
:103B28000000002080B500AFFFF7F2FF0246054B0A
:103B38005B681B0A03F007030349CB5C22FA03F313
:103B4800184680BD00100240FCA5000880B500AFF3
:103B5800FFF7DEFF0246054B5B68DB0A03F007034D
:103B68000349CB5C22FA03F3184680BD00100240DB
:103B7800FCA5000880B485B000AF78600A4B1B68CC
:103B88000A4AA2FB03235B0A7A6802FB03F3FB6081
:103B980000BFFB685A1EFA60002BF9D100BF00BFB6
:103BA8001437BD4680BC704700000020D34D62101A
:103BB80080B582B000AF78607B68002B01D101230B
:103BC80041E07B6893F83D30DBB2002B06D17B687F
:103BD800002283F83C207868FDF70CFC7B68022201
:103BE80083F83D207B681A687B68043319461046C1
:103BF80000F000FA7B68012283F846207B680122E6
:103C080083F83E207B68012283F83F207B680122ED
:103C180083F840207B68012283F841207B680122D9
:103C280083F842207B68012283F843207B680122C5
:103C380083F844207B68012283F845207B680122B1
:103C480083F83D20002318460837BD4680BD80B55F
:103C580084B000AF78607B681B68DB68FB607B68BA
:103C68001B681B69BB60BB6803F00203002B20D0F4
:103C7800FB6803F00203002B1BD07B681B686FF006
:103C880002021A617B6801221A777B681B689B69AC
:103C980003F00303002B03D0786802F00FF905E066
:103CA800786800F08BF9786800F091F97B68002259
:103CB8001A77BB6803F00403002B20D0FB6803F0DD
:103CC8000403002B1BD07B681B686FF004021A6189
:103CD8007B6802221A777B681B689B6903F4407330
:103CE800002B03D0786802F0E9F805E0786800F066
:103CF80065F9786800F06BF97B6800221A77BB6871
:103D080003F00803002B20D0FB6803F00803002B06
:103D18001BD07B681B686FF008021A617B6804225D
:103D28001A777B681B68DB6903F00303002B03D059
:103D3800786802F0C3F805E0786800F03FF9786821
:103D480000F045F97B6800221A77BB6803F010037E
:103D5800002B20D0FB6803F01003002B1BD07B68DE
:103D68001B686FF010021A617B6808221A777B685B
:103D78001B68DB6903F44073002B03D0786802F0FA
:103D88009DF805E0786800F019F9786800F01FF9E7
:103D98007B6800221A77BB6803F00103002B0CD064
:103DA800FB6803F00103002B07D07B681B686FF0EA
:103DB80001021A61786802F08DF8BB6803F080038D
:103DC800002B0CD0FB6803F08003002B07D07B6826
:103DD8001B686FF080021A61786800F09CFABB6873
:103DE80003F04003002B0CD0FB6803F04003002BCA
:103DF80007D07B681B686FF040021A61786800F092
:103E0800EFF8BB6803F02003002B0CD0FB6803F02D
:103E18002003002B07D07B681B686FF020021A6113
:103E2800786800F06FFA00BF1037BD4680BD80B5D6
:103E380084B000AF786039600023FB737B6893F827
:103E48003C30012B01D10223B4E07B68012283F8C6
:103E58003C207B68022283F83D207B681B689B68B6
:103E6800BB60BB6823F07703BB60BB6823F47F4368
:103E7800BB607B681B68BA689A603B681B68B3F5CF
:103E8800005F3ED0B3F5005F00F28780B3F5805F36
:103E980000F08680B3F5805F7FD8702B1AD0702B26
:103EA8007BD8602B50D0602B77D8502B3CD0502B30
:103EB80073D8402B58D0402B6FD8302B64D0302B80
:103EC8006BD8202B60D0202B67D8002B5CD0102B10
:103ED8005AD062E07B6818683B6899683B685A6802
:103EE8003B68DB6800F083F97B681B689B68BB60F4
:103EF800BB6843F07703BB607B681B68BA689A604D
:103F08004FE07B6818683B6899683B685A683B686B
:103F1800DB6800F06CF97B681B689A687B681B6833
:103F280042F480429A603CE07B6818683B685968B4
:103F38003B68DB681A4600F0E3F87B681B68502191
:103F4800184600F03AF92CE07B6818683B68596815
:103F58003B68DB681A4600F001F97B681B68602142
:103F6800184600F02AF91CE07B6818683B68596815
:103F78003B68DB681A4600F0C3F87B681B68402181
:103F8800184600F01AF90CE07B681A683B681B6851
:103F98001946104600F011F903E00123FB7300E015
:103FA80000BF7B68012283F83D207B68002283F8EC
:103FB8003C20FB7B18461037BD4680BD80B483B0DB
:103FC80000AF786000BF0C37BD4680BC704780B436
:103FD80083B000AF786000BF0C37BD4680BC704727
:103FE80080B483B000AF786000BF0C37BD4680BC9A
:103FF8007047000080B485B000AF786039607B6896
:104008001B68FB607B68394A934213D07B68384A47
:1040180093420FD07B68B3F1804F0BD07B68354A51
:10402800934207D07B68344A934203D07B68334A73
:10403800934208D1FB6823F07003FB603B685B6820
:10404800FA681343FB607B68284A934213D07B6865
:10405800274A93420FD07B68B3F1804F0BD07B681F
:10406800244A934207D07B68234A934203D07B6853
:10407800224A934208D1FB6823F44073FB603B68F3
:10408800DB68FA681343FB60FB6823F080023B6837
:104098005B691343FB607B68FA681A603B689A683F
:1040A8007B68DA623B681A687B689A627B680F4AA9
:1040B800934203D07B680E4A934203D13B681A6946
:1040C8007B681A637B6801225A617B681B6903F06D
:1040D8000103002B05D07B681B6923F001027B6874
:1040E8001A6100BF1437BD4680BC7047002C0140E0
:1040F800003401400004004000080040000C00406B
:1041080080B487B000AFF860B9607A60FB681B6A5A
:104118007B61FB681B6A23F00102FB681A62FB687B
:104128009B693B613B6923F0F0033B617B681B01A2
:104138003A6913433B617B6923F00A037B617A691F
:10414800BB6813437B61FB683A699A61FB687A69CB
:104158001A6200BF1C37BD4680BC704780B487B068
:1041680000AFF860B9607A60FB681B6A7B61FB6826
:104178001B6A23F01002FB681A62FB689B693B61AB
:104188003B6923F470433B617B681B033A69134323
:104198003B617B6923F0A0037B61BB681B017A69E3
:1041A80013437B61FB683A699A61FB687A691A6212
:1041B80000BF1C37BD4680BC704780B485B000AFD7
:1041C800786039607B689B68FB60FB6823F070034C
:1041D800FB603A68FB68134343F00703FB607B68A6
:1041E800FA689A6000BF1437BD4680BC704780B437
:1041F80087B000AFF860B9607A603B60FB689B6885
:104208007B617B6923F47F437B613B681A027B688F
:104218001A43BB6813437A6913437B61FB687A6965
:104228009A6000BF1C37BD4680BC704780B485B01B
:1042380000AF786039607B6893F83C30012B01D17E
:10424800022350E07B68012283F83C207B6802222D
:1042580083F83D207B681B685B68FB607B681B6894
:104268009B68BB60FB6823F07003FB603B681B68BE
:10427800FA681343FB607B681B68FA685A607B68BE
:104288001B681B4A934218D07B681B68194A9342E3
:1042980013D07B681B68B3F1804F0ED07B681B6816
:1042A800154A934209D07B681B68144A934204D08C
:1042B8007B681B68124A93420CD1BB6823F08003C9
:1042C800BB603B685B68BA681343BB607B681B686C
:1042D800BA689A607B68012283F83D207B680022D7
:1042E80083F83C20002318461437BD4680BC70472D
:1042F800002C014000340140000400400008004048
:10430800000C004080B483B000AF786000BF0C3769
:10431800BD4680BC704780B483B000AF786000BFF2
:104328000C37BD4680BC704780B582B000AF78605E
:104338007B68002B01D1012342E07B6893F8413070
:10434800DBB2002B06D17B68002283F84020786816
:10435800FDF7CAF87B68242283F841207B681B6834
:10436800DA687B681B6822F40052DA60786801F02A
:10437800DBF87B681B681A697B681B6822F490422B
:104388001A617B681B685A697B681B6822F02A02DD
:104398005A617B681B68DA687B681B6842F40052C4
:1043A800DA607B6800225A647B68202283F8412007
:1043B8007B68202283F842207B6800225A6300230E
:1043C80018460837BD4680BD80B58AB002AFF86090
:1043D800B9603B601346FB8000237B61FB6893F860
:1043E8004130DBB2202B75D1BB68002B02D0FB8893
:1043F800002B01D101236EE0FB6800225A64FB68A0
:10440800212283F84120FDF7E5F97861FB68FA88F5
:104418009A84FB68FA88DA84FB689B68B3F5805F46
:1044280008D1FB681B69002B04D10023FB61BB6822
:10443800BB6103E0BB68FB610023BB612EE03B6806
:1044480000937B6900228021F86800F07EFD034616
:10445800002B05D0FB68202283F8412003233AE093
:10446800FB69002B0BD1BB691B881A46FB681B68CC
:10447800C2F308025A60BB690233BB6107E0FB69FB
:104488001A78FB681B685A60FB690133FB61FB689B
:10449800DB8C9BB2013B9AB2FB68DA84FB68DB8C4D
:1044A8009BB2002BCBD13B6800937B690022402153
:1044B800F86800F04AFD0346002B05D0FB6820226F
:1044C80083F84120032306E0FB68202283F841207B
:1044D800002300E0022318462037BD4680BD0000B7
:1044E80080B58CB000AFF860B9601346FB80FB68FC
:1044F80093F84130DBB2202B56D1BB68002B02D099
:10450800FB88002B01D101234FE0BA68FB681A62CF
:10451800FB68FA889A84FB68FA88DA84FB680022C8
:104528005A64FB68212283F84120FB689B6B214A6F
:104538009A62FB689B6B204ADA62FB689B6B1F4A96
:104548001A63FB689B6B00225A6307F10803FB623E
:10455800FB68986BFB6A1968FB681B6804331A468A
:10456800FB88FEF773F9FB681B686FF040021A605E
:10457800FB681B681433BB61BB6953E8003F7B6170
:104588007B6943F08003BB62FB681B681433BA6A1B
:104598007A623B62396A7A6A41E80023FB61FB6907
:1045A800002BE5D1002300E0022318463037BD4632
:1045B80080BD00BFA14C00083B4D0008BF4E00085D
:1045C80080B58CB000AFF860B9601346FB80FB681B
:1045D80093F84230DBB2202B4AD1BB68002B02D0C3
:1045E800FB88002B01D1012343E0FB6801221A63F9
:1045F800FB6800225A63FB881A46B968F86800F01D
:10460800FDFC034687F82F3097F82F30002B2CD16C
:10461800FB681B6B012B25D100233B61FB681B68E2
:104628001B683B61FB681B685B683B613B69FB6817
:104638001B680C33BB61BB6953E8003F7B617B6936
:1046480043F01003BB62FB681B680C33BA6A7A62DA
:104658003B62396A7A6A41E80023FB61FB69002BF7
:10466800E5D102E0012387F82F3097F82F3000E0DA
:10467800022318463037BD4680BD80B58CB000AFE8
:10468800F860B9601346FB80FB6893F84230DBB2F0
:10469800202B46D1BB68002B02D0FB88002B01D110
:1046A80001233FE0FB6801221A63FB6800225A637A
:1046B800FB881A46B968F86800F0DAFC034687F800
:1046C8002F30FB681B6B012B25D100233B61FB6856
:1046D8001B681B683B61FB681B685B683B613B6947
:1046E800FB681B680C33BB61BB6953E8003F7B6107
:1046F8007B6943F01003BB62FB681B680C33BA6A22
:104708007A623B62396A7A6A41E80023FB61FB6995
:10471800002BE5D102E0012387F82F3097F82F30DE
:1047280000E0022318463037BD4680BD80B5BAB0D8
:1047380000AF78607B681B681B68C7F8E4307B684B
:104748001B68DB68C7F8E0307B681B685B69C7F8E3
:10475800DC300023C7F8D8300023C7F8D430D7F8A6
:10476800E43003F00F03C7F8D830D7F8D830002B5F
:104778000FD1D7F8E43003F02003002B09D0D7F885
:10478800E03003F02003002B03D0786800F00EFE21
:104798005BE2D7F8D830002B00F0DE80D7F8DC30A9
:1047A80003F00103002B06D1D7F8E03003F490732F
:1047B800002B00F0D180D7F8E43003F00103002B80
:1047C8000BD0D7F8E03003F48073002B05D07B685A
:1047D8005B6C43F001027B685A64D7F8E43003F05D
:1047E8000403002B0BD0D7F8DC3003F00103002BB7
:1047F80005D07B685B6C43F002027B685A64D7F88B
:10480800E43003F00203002B0BD0D7F8DC3003F0C0
:104818000103002B05D07B685B6C43F004027B68C6
:104828005A64D7F8E43003F00803002B11D0D7F806
:10483800E03003F02003002B05D1D7F8DC3003F07B
:104848000103002B05D07B685B6C43F008027B6892
:104858005A647B685B6C002B00F0F281D7F8E43077
:1048680003F02003002B08D0D7F8E03003F0200332
:10487800002B02D0786800F099FD7B681B685B69A3
:1048880003F04003002B14BF01230023DBB2C7F859
:10489800D4307B685B6C03F00803002B03D1D7F896
:1048A800D430002B4FD0786800F0A3FC7B681B68DD
:1048B8005B6903F04003002B41D07B681B6814330D
:1048C800C7F89C30D7F89C3053E8003FC7F89830B9
:1048D800D7F8983023F04003C7F8D0307B681B68BE
:1048E8001433D7F8D020C7F8A820C7F8A430D7F8D1
:1048F800A410D7F8A82041E80023C7F8A030D7F8BB
:10490800A030002BD9D17B68DB6B002B13D07B68E0
:10491800DB6B7E4A5A637B68DB6B1846FEF732F81E
:104928000346002B16D07B68DB6B5B6B7A68D26B17
:10493800104698470EE0786801F0B4FB0AE0786802
:1049480001F0B0FB06E0786801F0ACFB7B68002260
:104958005A6475E100BF73E17B681B6B012B40F063
:104968004F81D7F8E43003F01003002B00F04881A2
:10497800D7F8E03003F01003002B00F0418100234A
:10498800BB607B681B681B68BB607B681B685B68D7
:10499800BB60BB687B681B685B6903F04003002B46
:1049A80000F0B6807B68DB6B1B685B68A7F8BE30DD
:1049B800B7F8BE30002B00F045817B689B8DB7F8B7
:1049C800BE209A4280F03E817B68B7F8BE20DA8527
:1049D8007B68DB6B9B69202B00F088807B681B68F9
:1049E8000C33C7F88830D7F8883053E8003FC7F849
:1049F8008430D7F8843023F48073C7F8B8307B68E4
:104A08001B680C33D7F8B820C7F89420C7F8903043
:104A1800D7F89010D7F8942041E80023C7F88C30D5
:104A2800D7F88C30002BD9D17B681B6814337B678F
:104A38007B6F53E8003F3B673B6F23F00103C7F8E8
:104A4800B4307B681B681433D7F8B420C7F88020CB
:104A5800FB67F96FD7F8802041E80023BB67BB6F7D
:104A6800002BE1D17B681B6814333B663B6E53E82F
:104A7800003FFB65FB6D23F04003C7F8B0307B684F
:104A88001B681433D7F8B020FA66BB66B96EFA6EA5
:104A980041E800237B667B6E002BE3D17B682022F4
:104AA80083F842207B6800221A637B681B680C33FA
:104AB800FB64FB6C53E8003FBB64BB6C23F0100342
:104AC800C7F8AC307B681B680C33D7F8AC20BA65E4
:104AD8007B65796DBA6D41E800233B653B6D002B22
:104AE800E3D17B68DB6B1846FDF710FF7B68022279
:104AF8005A637B689A8D7B68DB8D9BB2D31A9BB215
:104B08001946786801F090FA9CE000BFBF5200088F
:104B18007B689A8D7B68DB8D9BB2D31AA7F8CE3061
:104B28007B68DB8D9BB2002B00F08E80B7F8CE300F
:104B3800002B00F089807B681B680C33BB63BB6B60
:104B480053E8003F7B637B6B23F49073C7F8C8304E
:104B58007B681B680C33D7F8C8207A643B64396CCF
:104B68007A6C41E80023FB63FB6B002BE3D17B6885
:104B78001B6814337B627B6A53E8003F3B623B6AE5
:104B880023F00103C7F8C4307B681B681433D7F8D7
:104B9800C4203A63FB62F96A3A6B41E80023BB62BE
:104BA800BB6A002BE3D17B68202283F842207B6814
:104BB80000221A637B681B680C333B613B6953E82E
:104BC800003FFB60FB6823F01003C7F8C0307B6828
:104BD8001B680C33D7F8C020FA61BB61B969FA6960
:104BE80041E800237B617B69002BE3D17B680222CB
:104BF8005A63B7F8CE301946786801F015FA23E001
:104C0800D7F8E43003F08003002B09D0D7F8E03060
:104C180003F08003002B03D0786800F060FB14E0F9
:104C2800D7F8E43003F04003002B0ED0D7F8E0307B
:104C380003F04003002B08D0786800F09FFB04E0E5
:104C480000BF02E000BF00E000BFE837BD4680BDFE
:104C580080B483B000AF786000BF0C37BD4680BC1D
:104C6800704780B483B000AF786000BF0C37BD4692
:104C780080BC704780B483B000AF786000BF0C3749
:104C8800BD4680BC704780B483B000AF786000BF79
:104C98000C37BD4680BC704780B590B000AF7860D7
:104CA8007B685B6AFB637B681B681B6803F02003F7
:104CB800002B37D1FB6B0022DA84FB6B1B681433A3
:104CC8007B627B6A53E8003F3B623B6A23F08003C8
:104CD800BB63FB6B1B681433BA6B3A63FB62F96AFC
:104CE8003A6B41E80023BB62BB6A002BE5D1FB6B42
:104CF8001B680C333B613B6953E8003FFB60FB6872
:104D080043F040037B63FB6B1B680C337A6BFA61DF
:104D1800BB61B969FA6941E800237B617B69002BB3
:104D2800E5D102E0F86BFFF793FF00BF4037BD46BF
:104D380080BD80B584B000AF78607B685B6AFB603B
:104D4800F868FFF78EFF00BF1037BD4680BD80B5FD
:104D58009CB000AF78607B685B6AFB667B681B6809
:104D68001B6803F02003002B72D1FB6E0022DA854A
:104D7800FB6E1B680C33FB64FB6C53E8003FBB64A1
:104D8800BB6C23F48073BB66FB6E1B680C33BA6E76
:104D9800BA657B65796DBA6D41E800233B653B6D6B
:104DA800002BE5D1FB6E1B681433BB63BB6B53E868
:104DB800003F7B637B6B23F001037B66FB6E1B6804
:104DC80014337A6E7A643B64396C7A6C41E8002358
:104DD800FB63FB6B002BE5D1FB6E1B6814337B6216
:104DE8007B6A53E8003F3B623B6A23F040033B6623
:104DF800FB6E1B6814333A6E3A63FB62F96A3A6BCE
:104E080041E80023BB62BB6A002BE5D1FB6E202280
:104E180083F84220FB6E1B6B012B19D1FB6E1B68BC
:104E28000C333B613B6953E8003FFB60FB6823F0B0
:104E38001003FB65FB6E1B680C33FA6DFA61BB61EE
:104E4800B969FA6941E800237B617B69002BE5D1E8
:104E5800FB6E00225A63FB6E1B6B012B06D1FB6EA7
:104E68009B8D1946F86E01F0DFF802E0F86EFFF747
:104E780001FF00BF7037BD4680BD80B584B000AF6C
:104E880078607B685B6AFB60FB6801225A63FB6899
:104E98001B6B012B08D1FB689B8D5B089BB21946E5
:104EA800F86801F0C1F802E0F868FFF7ECFE00BF0F
:104EB8001037BD4680BD80B584B000AF7860002350
:104EC800FB607B685B6ABB60BB681B685B6903F05F
:104ED8008003002B14BF01230023DBB2FB60BB68F7
:104EE80093F84130DBB2212B08D1FB68002B05D0A9
:104EF800BB680022DA84B86800F054F9BB681B6804
:104F08005B6903F04003002B14BF01230023DBB2CD
:104F1800FB60BB6893F84230DBB2222B08D1FB68F8
:104F2800002B05D0BB680022DA85B86800F061F96B
:104F3800BB685B6C43F01002BB685A64B86801F048
:104F4800B1F800BF1037BD4680BD80B586B000AF50
:104F5800F860B9603B601346FB713BE03B6AB3F114
:104F6800FF3F37D0FCF736FC02463B68D31A3A6A53
:104F78009A4202D33B6A002B01D103233AE0FB6833
:104F88001B68DB6803F00403002B23D0BB68802B6D
:104F980020D0BB68402B1DD0FB681B681B6803F042
:104FA8000803082B16D100237B61FB681B681B686C
:104FB8007B61FB681B685B687B617B69F86800F054
:104FC80018F9FB6808225A64FB68002283F840201D
:104FD80001230FE0FB681B681A68BB681340BA68B6
:104FE8009A420CBF01230023DBB21A46FB799A428E
:104FF800B4D0002318461837BD4680BD80B485B0AC
:1050080000AFF860B9601346FB80FB68BA689A6223
:10501800FB68FA889A85FB68FA88DA85FB680022BB
:105028005A64FB68222283F84220FB681B69002B24
:1050380007D0FB681B68DA68FB681B6842F480725B
:10504800DA60FB681B685A69FB681B6842F001025A
:105058005A61FB681B68DA68FB681B6842F020022B
:10506800DA60002318461437BD4680BC704700003C
:1050780080B598B000AFF860B9601346FB80BA6895
:10508800FB689A62FB68FA889A85FB6800225A6472
:10509800FB68222283F84220FB68DB6B3E4A9A6257
:1050A800FB68DB6B3D4ADA62FB68DB6B3C4A1A63E0
:1050B800FB68DB6B00225A6307F10803FB65FB689A
:1050C800D86BFB681B6804331946FB6D1A68FB88AC
:1050D800FDF7BCFB00233B61FB681B681B683B6159
:1050E800FB681B685B683B613B69FB681B69002BBD
:1050F80019D0FB681B680C333B643B6C53E8003FDA
:10510800FB63FB6B43F48073BB65FB681B680C3364
:10511800BA6DFA64BB64B96CFA6C41E800237B642D
:105128007B6C002BE5D1FB681B681433FB62FB6AC0
:1051380053E8003FBB62BB6A43F001037B65FB6831
:105148001B6814337A6DBA637B63796BBA6B41E879
:1051580000233B633B6B002BE5D1FB681B681433D2
:10516800BB61BB6953E8003F7B617B6943F0400347
:105178003B65FB681B6814333A6D7A623B62396A97
:105188007A6A41E80023FB61FB69002BE5D1002323
:1051980018466037BD4680BD574D0008834E00084D
:1051A800BF4E000880B489B000AF78607B681B6888
:1051B8000C33FB60FB6853E8003FBB60BB6823F01F
:1051C800C003FB617B681B680C33FA69BA617B61B9
:1051D8007969BA6941E800233B613B69002BE5D155
:1051E8007B68202283F8412000BF2437BD4680BC5D
:1051F800704780B495B000AF78607B681B680C334B
:105208007B637B6B53E8003F3B633B6B23F49073FA
:10521800FB647B681B680C33FA6C3A64FB63F96BBC
:105228003A6C41E80023BB63BB6B002BE5D17B687C
:105238001B6814333B623B6A53E8003FFB61FB6920
:1052480023F00103BB647B681B681433BA6CFA62F1
:10525800BB62B96AFA6A41E800237B627B6A002B69
:10526800E5D17B681B6B012B19D17B681B680C335C
:10527800FB60FB6853E8003FBB60BB6823F010038A
:105288007B647B681B680C337A6CBA617B617969D3
:10529800BA6941E800233B613B69002BE5D17B6893
:1052A800202283F842207B6800221A6300BF54370B
:1052B800BD4680BC704780B584B000AF78607B681D
:1052C8005B6AFB60FB680022DA85FB680022DA84EF
:1052D800F86800F0E7FE00BF1037BD4680BD80B417
:1052E80085B000AF78607B6893F84130DBB2212B42
:1052F8003ED17B689B68B3F5805F14D17B681B69DE
:10530800002B10D17B681B6AFB60FB681B881A4660
:105318007B681B68C2F308025A607B681B6A9A1C88
:105328007B681A6208E07B681B6A591C7A681162FC
:105338001A787B681B685A607B68DB8C9BB2013BE0
:105348009BB27A681946D184002B0FD17B681B6801
:10535800DA687B681B6822F08002DA607B681B6869
:10536800DA687B681B6842F04002DA60002300E0DC
:10537800022318461437BD4680BC704780B582B0FA
:1053880000AF78607B681B68DA687B681B6822F06E
:105398004002DA607B68202283F841207868FFF7B2
:1053A80057FC002318460837BD4680BD80B58CB031
:1053B80000AF78607B6893F84230DBB2222B40F074
:1053C800AE807B689B68B3F5805F17D17B681B69EB
:1053D800002B13D10023FB627B689B6ABB627B684E
:1053E8001B685B689BB2C3F308039AB2BB6A1A8056
:1053F8007B689B6A9A1C7B689A6226E07B689B6A3A
:10540800FB620023BB627B689B68B3F5805F07D0B3
:105418007B689B68002B0AD17B681B69002B06D12F
:105428007B681B685B68DAB2FB6A1A7008E07B6805
:105438001B685B68DBB203F07F03DAB2FB6A1A70A1
:105448007B689B6A5A1C7B689A627B68DB8D9BB27F
:10545800013B9BB27A681946D185002B5DD17B68E8
:105468001B68DA687B681B6822F02002DA607B68B8
:105478001B68DA687B681B6822F48072DA607B68D4
:105488001B685A697B681B6822F001025A617B68B5
:10549800202283F842207B6800225A637B681B6BBA
:1054A800012B35D17B6800221A637B681B680C339B
:1054B8007B617B6953E8003F3B613B6923F0100344
:1054C8007B627B681B680C337A6A3A62FB61F96914
:1054D8003A6A41E80023BB61BB69002BE5D17B68D0
:1054E8001B681B6803F01003102B0AD10023FB6014
:1054F8007B681B681B68FB607B681B685B68FB60DC
:10550800FB687B689B8D1946786800F08DFD02E08A
:105518007868FFF7AFFB002302E0002300E00223D6
:1055280018463037BD4680BD80B584B000AF78607E
:105538007B681B681B6923F440517B68DA687B68C9
:105548001B680A431A617B689A687B681B691A435F
:105558007B685B691343BB607B681B68DB6823F46B
:10556800B05323F00C037A681268B9680B43D36010
:105578007B681B685B6923F440717B689A697B6868
:105588001B680A435A617B681B682C4A934203D103
:10559800FEF7DCFAF86002E0FEF7C4FAF860FA6891
:1055A80013469B0013449A001A447B685B689B006F
:1055B800B2FBF3F3224AA2FB03235B091901FA6841
:1055C80013469B0013449A001A447B685B689B004F
:1055D800B2FBF3F21A4BA3FB02035B09642000FB46
:1055E80003F3D31A1B013233154AA2FB03235B09C9
:1055F80003F0F0031944FA6813469B0013449A0019
:105608001A447B685B689B00B2FBF3F20C4BA3FB6C
:1056180002035B09642000FB03F3D31A1B01323336
:10562800074AA2FB03235B0903F00F027B681B6890
:105638000A449A6000BF1037BD4680BD003801405B
:105648001F85EB5180B584B000AFF860B9607A600F
:105658007A68B968F86801F00BFB00BF1037BD46DF
:1056680080BD000080B582B000AF78607B685A6A60
:105678007B6893F82030DBB23549364800F083FC6C
:1056880002223549334800F063FC7B685B6A002BD3
:1056980059D07B685B6A03F02003002B08D02F49A0
:1056A8002C4800F070FC02222B492A4800F050FCDC
:1056B8007B685B6A03F40073002B08D028492548EF
:1056C80000F061FC02222449224800F041FC7B687A
:1056D8005B6A03F48063002B08D022491D4800F060
:1056E80052FC02221C491B4800F032FC7B685B6AB2
:1056F80003F00403002B08D01B49164800F043FCB4
:1057080002221549134800F023FC7B685B6A03F00A
:105718000203002B08D015490E4800F034FC022281
:105728000D490C4800F014FC7B685B6A03F0010328
:10573800002B08D00E49074800F025FC0222064934
:10574800044800F005FC00BF0837BD4680BD00BF17
:10575800E8A30008B002002008A400080CA4000870
:1057680058A400087CA40008A0A40008B8A4000855
:10577800D8A4000880B58CB000AF45F25E53BB8456
:10578800FCF728F8F86207F12402022340F22311FB
:10579800104800F025FBB86210E000210D48FCF726
:1057A80073FC0346002B09D03B4607F10802002191
:1057B8000848FCF748FB0346002B07D0FCF70AF81B
:1057C8000246FB6AD31AC72BE7D900E000BF30377F
:1057D800BD4680BDF401002080B588B000AFFBF75E
:1057E800F9FFF861314B1B68002B07D02F4B1B6862
:1057F800FA69D31A4EF65F22934253D92B4AFB69B2
:105808001360FA692A492B4800F0BDFB02222A4995
:10581800284800F09DFBF86900F064FE5E23BB8118
:105828004FF4AF733B8140F25E23BB8007F10C025B
:1058380002236321214800F0D3FAB861BA692049EC
:105848001C4800F0A0FB02221B491A4800F080FB0C
:105858005020FBF7C9FF07F108020223632117480C
:1058680000F0BEFA78617A691649124800F08BFB9D
:10587800022211490F4800F06BFB5020FBF7B4FFE0
:105888003A1D022363210D4800F0AAFA38613A69EB
:105898000D49084800F077FB02220749054800F047
:1058A80057FB00E000BF2037BD4680BD84030020C1
:1058B800F8A40008B002002008A50008F4010020A0
:1058C8000CA5000818A5000824A5000880B58AB012
:1058D80000AF10E03B1D07F10C0200211848FCF74F
:1058E800B2FA0346002B06D13A1D07F10C031946FC
:1058F8001348FFF7A7FE00211148FCF7C5FB034634
:10590800002BE7D110E03B1D07F10C0201210C48E8
:10591800FCF799FA0346002B06D13A1D07F10C0350
:1059280019460748FFF78EFE01210548FCF7ACFB36
:105938000346002BE7D100BF00BF2837BD4680BD16
:10594800F401002080B584B004AF00F049FBFBF7F8
:1059580041FF03461A461749174800F014FB022274
:105968001649154800F0F4FA01F040FA00F0B6FCC8
:1059780000230293012301930023009300230022B4
:1059880000210F4800F057FA0D48FCF715F90221DD
:105998000B48FCF7A0FB10210948FCF79CFB0848C2
:1059A80000F0FDF9FFF7E6FEFFF716FF00BFBD4662
:1059B80080BD00BF30A50008B002002008A500087F
:1059C800F401002080B500AF00F0BAFCFFF704FF37
:1059D800FFF77CFF00F00EF800F0A0FD00BF80BDCF
:1059E80080B483B000AF786000BF0C37BD4680BC80
:1059F8007047000080B5B6B002AFC0E0674B1B78B7
:105A0800DBB203F007031B01654A1344C7F8C03033
:105A18000023C7F8CC300023C7F8C830D7F8CC30FB
:105A28003A46D018D7F8CC30C3F16001D7F8C03067
:105A38005A68D7F8C0301B7800931346594A02F0C9
:105A480053FB0246D7F8CC301344C7F8CC300023B8
:105A5800C7F8C4301CE0D7F8CC303A46D018D7F88D
:105A6800CC30C3F16001D7F8C020D7F8C430134454
:105A780008331B784C4A02F037FB0246D7F8CC3083
:105A88001344C7F8CC30D7F8C4300133C7F8C43052
:105A9800D7F8C0301B781A46D7F8C430934203DAD7
:105AA800D7F8CC305B2BD6DD3B461A463F494048F9
:105AB80000F069FA02223F493D4800F049FAD7F858
:105AC800C83007F16002D018D7F8C830C3F16001B8
